:020000040800F2
:1000000050F60020C1010008390D00085B06000809
:10001000350D0008AF0200083B1B0008000000007F
:10002000000000000000000000000000D5140008DF
:1000300005040008000000008913000839160008B4
:10004000DB010008DB010008DB010008DB01000820
:10005000DB010008DB01000819040008DB010008CF
:10006000DB010008DB010008DB010008DB01000800
:10007000DB010008DB010008DB010008DB010008F0
:10008000DB010008DB010008DB010008DB010008E0
:10009000DB010008DB010008DB010008DB010008D0
:1000A000DB010008DB010008DB010008DB010008C0
:1000B000A5160008B5160008DB010008DB010008E2
:1000C000DB010008DB010008DB010008DB010008A0
:1000D000DB0100087D180008DB010008DB010008D7
:1000E0006D040008DB010008DB010008DB010008EB
:1000F000DB010008DB010008DB010008DB01000870
:10010000DB010008DB010008DB010008DB0100085F
:10011000DB010008DB010008DB010008DB0100084F
:10012000DB010008DB010008DB010008DB0100083F
:10013000DB010008DB010008DB010008DB0100082F
:10014000DB010008DB010008DB010008DB0100081F
:10015000DB010008DB010008DB010008DB0100080F
:10016000DB010008DB010008DB010008DB010008FF
:10017000DB010008DB010008DB010008DB010008EF
:10018000DB010008DB010008DB010008DB010008DF
:10019000DB010008DB010008DB010008DB010008CF
:1001A000DB010008DB010008DB010008DFF80CD0F0
:1001B00000F040F8004800471D1E000850F60020DF
:1001C0000648804706480047FEE7FEE7FEE7FEE7F1
:1001D000FEE7FEE7FEE7FEE7FEE7FEE73D16000866
:1001E000AD01000840EA01039B0703D009E008C9FC
:1001F000121F08C0042AFAD203E011F8013B00F8EC
:10020000013B521EF9D27047421C10F8011B002915
:10021000FBD1801A704710B5002200E0521C835CAD
:100220008C5CA34201D1002BF8D1D8B2E1B2401AC4
:1002300010BD0000064C074D06E0E06840F00103E9
:1002400094E8070098471034AC42F6D3FFF7B2FFAA
:10025000D41E0008F41E000870B58C1810F8015B5D
:1002600015F0070301D110F8013B2A1106D110F84F
:10027000012B03E010F8016B01F8016B5B1EF9D153
:100280002B0705D40023521E0DD401F8013BFAE7D9
:1002900010F8013BCB1A921C03E013F8015B01F844
:1002A000015B521EF9D5A142D8D3002070BD00BF1A
:1002B000FEE71CB504460121A06801F067F8A0889C
:1002C000009001208DF8040000208DF80600022027
:1002D0008DF8070000208DF805006946206800F0C1
:1002E0004DF91CBD828801684A8300BF704782882F
:1002F00001680A8300BF704770B588B0002007907E
:100300003348FFF781FF05460024002602A800F0CD
:100310005BFD304890F85000012804D02E4890F83A
:10032000500001284ED1032D32DB2CA001F012FD2C
:100330002AE02748005D8DF81C002548611C405CC0
:100340008DF81D002248A11C405C8DF81E00002085
:100350008DF81F00224807AA01460369684698479E
:1003600002A8069BDDE90012984702A80599884774
:100370001CA10298FFF74FFF08B9002607E00126ED
:10038000E41C19A001F0E6FCA01CA842D1D900BFD2
:1003900016480078012804D11EB915A001F0DAFC36
:1003A00005E001201149087014A001F0D3FC0021E0
:1003B000084880F85010084880F850100448383831
:1003C00001F011FC02A80499884708B070BD000034
:1003D00044EB002060EF0020C0EF0020200A000066
:1003E0002CF00020455252000A000000D8EA0020FC
:1003F0000A5B4572726F72215D0A00005B4F4B21F0
:100400005D0A0000704701B500BF0098401E0090D3
:100410000028FAD108BD000010B51049086900F0A5
:1004200057F8C8B10E4890F8510030B10D4800F0AF
:10043000E1FA01210A4800F0E5FA0B4890F8510072
:1004400030B1084800F0D6FA0121074800F0DAFA86
:100450000249086900F036F810BD0000941E00083B
:1004600060EF0020DCEA0020C0EF002010B5114949
:10047000086900F02DF8D8B10F4890F85100012814
:1004800006D00E4800F0B6FA00210B4800F0BAFA88
:100490000B4890F85100012806D0084800F0AAFA4D
:1004A0000021074800F0AEFA0249086900F00AF896
:1004B00010BD0000B41E000860EF0020E8EA002034
:1004C000C0EF00200149086070470000143C014063
:1004D00001460020034A12680A400AB1012000E0E8
:1004E00000207047143C0140002123498279002AF2
:1004F0003AD00A46126803689A430B461A600A1DEE
:10050000126803689A430B1D1A60027911440A6845
:1005100003681A430A60184A0832126803689A434B
:10052000154B08331A601A1D126803689A43124B60
:100530000C331A604279102A0ED11A1F1268036810
:100540001A430D4B08331A601A1D126803681A43C8
:10055000094B0C331A600DE00749427911440A68CF
:1005600003681A430A6005E0027911440A680368C7
:100570009A430A6070470000003C0140F0B50A460B
:1005800000210023002400BF3DE0012505FA01F30E
:10059000156805EA03049C4234D105684F00032620
:1005A000BE40B543056015794E00B5400668354339
:1005B00005601579012D02D01579022D16D18568B7
:1005C0004F000326BE40B543856055794E00B540C7
:1005D000866835438560456801268E40B543456091
:1005E000456896798E40B6B235434560C5684F0080
:1005F0000326BE40B543C560D5794E00B540C668F8
:100600003543C560491C1029BFD3F0BDF0B50023A8
:1006100000244D07ED0E02FA05F3CE1000F120057F
:1006200055F826504E07F70E0F26BE40B543CF10A3
:1006300000F1200646F82750CE1000F1200555F8AD
:10064000265045EA0304CE1000F1200545F8264067
:10065000F0BD418370470183704700BFFEE710B5CE
:1006600000F024F800F016F800F012F900F006F897
:1006700000F034F800F03EF810BD000010B503485B
:1006800000F00EF9024800F00BF910BD48EF002011
:1006900054EF002010B5034800F00BF9024800F0B9
:1006A00008F910BD941E0008B41E000810B50748D4
:1006B00000F008F9064800F005F9064800F002F9D4
:1006C00000F086F9044800F07DF910BDDCEA002056
:1006D000E8EA0020F4EA002000EB002010B503480F
:1006E00000F009F9024800F006F910BD60EF0020A3
:1006F000C0EF002000B589B001A800F081FC2022E5
:1007000001A96248FFF76EFD05A800F041FCDDE994
:100710000501CDE907015D480A46436907999847F5
:1007200005A800F05FFCDDE90501CDE907015748A8
:100730000A4643690799984705A800F037FCDDE9A8
:100740000501CDE9070151480A46436907999847D1
:1007500005A800F039FCDDE90501CDE907014B48AA
:100760000A4643690799984705A800F003FCDDE9AC
:100770000501CDE9070145480A46436907999847AD
:1007800005A800F095FBDDE90501CDE907013F482B
:100790000A4643690799984705A800F0B3FBDDE9CD
:1007A0000501CDE9070139480A4643690799984789
:1007B00005A800F08BFBDDE90501CDE90701334811
:1007C0000A4643690799984705A800F08DFBDDE9C3
:1007D0000501CDE907012D480A4643690799984765
:1007E00005A800F057FBDDE90501CDE90701274821
:1007F0000A4643690799984705A800F09FFBDDE981
:100800000501CDE9070121480A4643690799984740
:1008100005A800F0A1FBDDE90501CDE907011B48B2
:100820000A4643690799984705A800F017FBDDE9D8
:100830000501CDE9070115480A464369079998471C
:1008400005A800F019FBDDE90501CDE907010F4816
:100850000A4643690799984705A800F0E3FADDE9DD
:100860000501CDE9070109480A46436907999847F8
:1008700005A800F0E5FADDE90501CDE90701034827
:100880000A4643690799984709B000BD2CF000203B
:1008900010B5024800F03BF810BD00000CEB002042
:1008A00010B504462046FFF704FD2046FFF71FFD64
:1008B00010BD10B50446204600F057F8204600F061
:1008C00038F810BD1CB504460121A06800F05EFD9B
:1008D000A088009001208DF8040000208DF806000B
:1008E00001208DF8070000208DF80500694620687A
:1008F000FFF744FE1CBD10B50446204600F0C6F8C4
:10090000204600F0F9F9204600F084F910BD10B53A
:100910000446204601F013F910BD704710B5044697
:100920006068804710BD07B5DDE90112C0E900121B
:100930000EBD1CB504460121880300F047FD20468A
:1009400000F025F8617B084600F0C6FD20690090A4
:1009500000208DF80400207F8DF8050001208DF81F
:1009600006006846FFF7C0FD1CBD1CB5044601210A
:10097000A06800F00BFDA088009000208DF8040016
:100980008DF8070069462068FFF7F8FD1CBD38B5F3
:1009900004464FF4C06000F00DFA207D8DF8000091
:1009A00001208DF8010002208DF8020001208DF851
:1009B0000300684600F0C2F938BD828801684A83A6
:1009C00000BF7047828801680A8300BF704700003B
:1009D00000B50548FFF7F1FF0448FFF7EEFF0448B4
:1009E000FFF7EBFF00BD0000DCEA0020E8EA002092
:1009F000F4EA0020828801684B6953404B6100BFD4
:100A00007047000070B504460D465DB1B4F84C1057
:100A1000A06CFFF720FE00215120015507A001F036
:100A200099F90AE0B4F84C10A06CFFF712FE01210E
:100A30005120015510A001F08DF970BD0A44726972
:100A400076652073746F70206F75747075742C20C8
:100A50004E6F7720796F752063616E20726F7461BD
:100A6000746520746865206D6F746F72206D616E9F
:100A700075616C6C790A00000A4472697665204BD6
:100A8000656570204F75747075740A001CB5044656
:100A900020340121D4E900209047A0890090012052
:100AA0008DF8040000208DF8060001208DF8070065
:100AB00002208DF804008DF805006946A068FFF754
:100AC0005DFDA27BE17BA068FFF7A0FD0121D4E9D9
:100AD00004209047A08B009001208DF80400002096
:100AE0008DF8060001208DF8070002208DF8050022
:100AF0006946A069FFF742FDA18BA069FFF7A9FD38
:100B00000121D4E908209047A08D009001208DF8A4
:100B1000040000208DF8060001208DF80700022057
:100B20008DF805006946A06AFFF728FDA18DA06A2F
:100B3000203CFFF78EFD1CBD70B504460026656D98
:100B4000002D00DA6D420121206800F0D6FD00B9C9
:100B500070BD0121206800F0C1FD2846192D1BD071
:100B6000A0F59850883868B1A0F598508838E8B951
:100B7000244801680068401C224A1060224850F84E
:100B8000216017E01F4801680068401C1D4A106082
:100B90001E4850F821600DE01A4801680068401CAA
:100BA000184A10601A4850F8216003E0681C154983
:100BB000086000BF00BF032E00D203262068066431
:100BC00070002168C8625120005D18B10D480068AE
:100BD000A8420FD92068008C20F480502168088436
:100BE0000021206800F07DFD002084F84F000549B9
:100BF000086005E02068008C40F48050216808847B
:100C000000BFA5E7D4EA002010000020509C00207F
:100C100070EA002010B588B004460121D4E9012013
:100C2000904705A800F014FE09200690B320ADF807
:100C300014000020ADF81C00ADF8160005A92068CE
:100C400000F0C4FD7020ADF800000120ADF80200F6
:100C50000020ADF80400042002900220ADF80C0042
:100C60000020ADF810006946E2682068904708212E
:100C70002269206890470121206800F023FD0121AE
:100C8000206800F0EEFD0121206800F027FD012220
:100C90001146206800F042FD0021206800F021FD8F
:100CA00008B010BD10B50446606DC00F84F84E004A
:100CB00094F84E0020B9A18FA06BFFF7CAFC03E0A7
:100CC000A18FA06BFFF7C7FC012151200155012026
:100CD00084F84F000020074908601421206800F0C4
:100CE00070FD0A216269206890470121206800F0A8
:100CF000F8FC10BDD4EA002038B504464FF4E0609B
:100D000000F058F8207E8DF8000001208DF80100D9
:100D10008DF802008DF80300684600F00FF838BD2A
:100D200000BF90F84F10012903D15121095C01291E
:100D3000F7D0704700BFFEE77047000070B5002194
:100D400000230F22C4781CB3174C246804F4E06419
:100D5000C4F5E064C4F30721C1F10404E3B20A411D
:100D600044789C40E1B28478144021430C07210E62
:100D70000E4C05786155047804F01F050124AC4041
:100D800005786D11AD0005F1E025C5F8004109E0D9
:100D9000047804F01F050124AC40054D0678761157
:100DA00045F8264070BD00000CED00E000E400E0D6
:100DB00080E100E002490143024A116070470000EF
:100DC0000000FA050CED00E010B588B0044601A85B
:100DD00000F018F8DDE90101CDE9030106480590AE
:100DE0000648069006480790142203A92046FFF7FC
:100DF000F9F908B010BD00001B0900081D09000822
:100E0000270900080CB504A1009105490191DDE90D
:100E10000012C0E900120CBD4F7264657200000040
:100E2000011200080CB504A1009104490191DDE90B
:100E30000012C0E900120CBD41432B004510000810
:100E40000CB504A1009104490191DDE90012C0E94B
:100E500000120CBD41432D00751000080CB504A113
:100E6000009104490191DDE90012C0E900120CBDB6
:100E700044432B00A51000080CB504A100910449BF
:100E80000191DDE90012C0E900120CBD44432D00C0
:100E9000CD1000080CB504A1009104490191DDE9D1
:100EA0000012C0E900120CBD444D3200F5100008DC
:100EB0000CB504A1009104490191DDE90012C0E9DB
:100EC00000120CBD444D2B00451100080CB504A1C7
:100ED000009104490191DDE90012C0E900120CBD46
:100EE000444D4600791100080CB504A10091044955
:100EF0000191DDE90012C0E900120CBD444D520021
:100F0000A11100080CB504A1009104490191DDE98B
:100F10000012C0E900120CBD444D2D00CD11000897
:100F20000CB504A1009104490191DDE90012C0E96A
:100F300000120CBD45525200191200080CB504A154
:100F4000009104490191DDE90012C0E900120CBDD5
:100F50004C432B002D1200080CB504A1009104494C
:100F60000191DDE90012C0E900120CBD4C432D00D7
:100F7000551200080CB504A1009104490191DDE966
:100F80000012C0E900120CBD4C4D32007D12000869
:100F90000CB504A1009104490191DDE90012C0E9FA
:100FA00000120CBD4C4D2B00CD1200080CB504A155
:100FB000009104490191DDE90012C0E900120CBD65
:100FC0004C4D4600011300080CB504A100910449E2
:100FD0000191DDE90012C0E900120CBD4C4D520038
:100FE000291300080CB504A1009104490191DDE921
:100FF0000012C0E900120CBD4C4D2D005513000825
:1010000010B588B004460020009001900290084876
:10101000039008480490084805900848069008483E
:101020000790202269462046FFF7DCF808B010BD83
:10103000471C00085B1C0008A71C0008011D0008D5
:101040004F1D000810B506A000F084FE0648FFF70B
:101050004EF90648FFF74BF90548FFF7D4F910BDE4
:101060005B41432B5D20000054EF002048EF00203F
:10107000C0C62D0010B506A000F06CFE0648FFF7B4
:1010800031F90648FFF72EF90548FFF7BCF910BD06
:101090005B41432D5D20000054EF002048EF00200D
:1010A000A025260010B505A000F054FE0548FFF766
:1010B0001EF90548FFF7A7F910BD00005B44432B5C
:1010C0005D20000048EF0020C0C62D0010B505A02F
:1010D00000F040FE0548FFF705F90548FFF793F9D2
:1010E00010BD00005B44432D5D20000048EF002050
:1010F000A025260010B50FA000F02CFE0F48C06DF3
:101100005A2807DB0E480D4948650846C06DB438BB
:10111000C86507E042F21070084948650846C06D8E
:10112000B430C8650548FFF7BDFD0448FFF7F8FD7A
:1011300010BD00005B444D325D20000060EF0020D8
:10114000F0D8FFFF10B509A000F004FE41F288308E
:10115000084948650846C06D5A30C8650846FFF71B
:10116000A1FD0448FFF7DCFD10BD00005B444D2BE2
:101170005D20000060EF002010B506A000F0EAFD41
:101180001920064948650846FFF78CFD0348FFF71C
:10119000C7FD10BD5B444D465D20000060EF0020A0
:1011A00010B507A000F0D6FD6FF01800064948659D
:1011B0000846FFF777FD0448FFF7B2FD10BD0000B9
:1011C0005B444D525D20000060EF002010B508A088
:1011D00000F0C0FD0848094948650846C06D5A3806
:1011E000C8650846FFF75EFD0448FFF799FD10BD8E
:1011F0005B444D2D5D20000078ECFFFF60EF002088
:1012000010B502A000F0A6FD10BD00005B446F42C7
:101210006173655D0A00000010B502A000F09AFD40
:1012200010BD00005B4552525D20000010B505A0C6
:1012300000F090FD0548FFF75AF80548FFF7E3F87E
:1012400010BD00005B4C432B5D20000054EF0020DC
:10125000C0C62D0010B505A000F07CFD0548FFF7C5
:1012600041F80548FFF7CFF810BD00005B4C432D57
:101270005D20000054EF0020A025260010B50FA02F
:1012800000F068FD0F48C06D10F15A0F07DB0E48E3
:101290000C4948650846C06DB438C86507E042F29D
:1012A0001070084948650846C06DB430C8650548E7
:1012B000FFF7F8FC0348FFF733FD10BD5B4C4D32E0
:1012C0005D200000C0EF0020F0D8FFFF10B509A09E
:1012D00000F040FD41F28830084948650846C06D7D
:1012E0005A30C8650846FFF7DDFC0448FFF718FDD3
:1012F00010BD00005B4C4D2B5D200000C0EF0020B6
:1013000010B506A000F026FD1920064948650846DC
:10131000FFF7C8FC0348FFF703FD10BD5B4C4D46CB
:101320005D200000C0EF002010B507A000F012FD06
:101330006FF01800064948650846FFF7B3FC0448FB
:10134000FFF7EEFC10BD00005B4C4D525D2000002D
:10135000C0EF002010B508A000F0FCFC08480949C7
:1013600048650846C06D5A38C8650846FFF79AFCBC
:101370000448FFF7D5FC10BD5B4C4D2D5D200000EF
:1013800078ECFFFFC0EF00207047000029B1064A4B
:1013900012680243044B1A6004E0034A1268824355
:1013A000014B1A60704700003038024029B1064AEC
:1013B00012680243044B1A6004E0034A1268824335
:1013C000014B1A60704700004038024029B1064ABC
:1013D00012680243044B1A6004E0034A1268824315
:1013E000014B1A607047000044380240F0B50021FC
:1013F00000220024022500260223324F3F6807F016
:101400000C0121B1042905D0082937D105E02E4F60
:10141000076036E02D4F076033E02A4F3F1F3F68DB
:10142000C7F38056274F3F1F3F6807F03F036EB159
:10143000264FB7FBF3F7DFF88CC0ACF1040CDCF8F7
:1014400000C0CCF3881C07FB0CF40CE01E4FB7FB6C
:10145000F3F7DFF870C0ACF1040CDCF800C0CCF39B
:10146000881C07FB0CF4174F3F1F3F68C7F3014769
:101470007F1C7D00B4FBF5F7076002E0124F0760A8
:1014800000BF00BF0F4F3F6807F0F0010909104F80
:101490007A5C0768D74047600A4F3F6807F4E0511D
:1014A000890A0B4F7A5C4768D7408760054F3F68D1
:1014B00007F46041490B064F7A5C4768D740C76024
:1014C000F0BD0000083802400024F40040787D019F
:1014D000000000207047000030B500228B071C0F71
:1014E0000F2303FA04F20B4B8C1053F82430934370
:1014F000084C8D1044F8253023468C1053F82430C6
:101500008C07240F00FA04F42343024C8D1044F896
:10151000253030BD083801400CB500200190009006
:101520004148006840F480303F49086000BF3E48B1
:10153000006800F4003000900198401C0190009871
:1015400018B90198B0F5A04FF1D13748006800F400
:10155000003010B10120009001E0002000900098C0
:10156000012860D130484030006840F080502E495A
:10157000403108602D48006840F440402B49086025
:101580002948083000682849083108600846006882
:1015900040F4004008600846006840F4A05008602D
:1015A0002348091F0860081F006840F08070091F69
:1015B000086000BF1C48006800F000700028F9D0E7
:1015C0001A48006840F480301849086000BF174886
:1015D000406800F480300028F9D01448006840F4D6
:1015E00000301249086000BF1048406800F4003025
:1015F0000028F9D040F205700E4908600A4808300A
:10160000006820F0030008490831086008460068B7
:1016100040F00200086000BF03480830006800F096
:101620000C000828F8D10CBD0038024000700040C2
:10163000195A4007003C02407047000010B5154899
:10164000006840F47000134908601348006840F0D7
:1016500001001149086000200F49083108600E4858
:1016600000680E4908400C4908600D48091D0860D3
:10167000081F006820F48020091F08600020064928
:101680000C310860FFF748FF4FF0006001498039D6
:10169000086010BD88ED00E000380240FFFFF6FE54
:1016A0001030002410B50248FFF746FA10BD0000C4
:1016B00060EF002010B50248FFF73EFA10BD0000B1
:1016C000C0EF002021B1028842F08002028004E0D5
:1016D00002884FF67F731A4002807047CA43028225
:1016E000704721B1028842F00102028004E00288C2
:1016F0004FF6FE731A400280704730B50246002054
:1017000000230024158A05EA0103958905EA0104EE
:1017100013B10CB1012000E0002030BD1AB1838963
:101720000B43838102E083898B43838170470000F0
:1017300070B5002200230024058C4EF6FF7635405C
:101740000584038C8488828B48F6FF752A404FF607
:10175000FF452A400D884FF6FF7606EA05252A4305
:101760004DF6FF752B408D8906EA05352B434D88D4
:1017700006EA05352B430A4DA84202D0094DA8427E
:1017800008D14BF6FF752C400D8A4FF6FF7606EA1E
:1017900085152C43848082838D680564038470BD25
:1017A00000000140000401400A460021818B4FF2F5
:1017B000FF7319404FF6FF7303EA02231943818335
:1017C0007047C162704701647047000000220288C0
:1017D000184B98420ED0184B98420BD0B0F1804F66
:1017E00008D0164B984205D0154B984202D0154BA5
:1017F000984204D14FF68F731A404B881A43124B0C
:10180000984207D0114B984204D04FF6FF431A403C
:101810000B891A4302804B68C3620B880385054B12
:10182000984202D0044B984201D18B7A038601235F
:101830008382704700000140000401400004004022
:1018400000080040000C0040001000400014004060
:101850004FF0FF31416000210180018141808172A0
:10186000704721B1028842F00402028004E002883D
:101870004FF6FB731A4002807047000010B53E49D6
:10188000086840F2255100F096F8002873D03A49D4
:10189000086800F049F9C4B2384890F84F000028B1
:1018A00069D1364890F85100012864D1344890F845
:1018B0004F0000285FD1324890F8510001285AD1DA
:1018C000082C21D12C48D0F83804002853D02A49BC
:1018D0000868082100F0A8F927490868202100F0CD
:1018E000A3F925490868082100F09EF92248D0F89C
:1018F0003804401E2049C1F8380400211E48D0F8A1
:1019000038243830815436E01B48D0F8380440F28F
:10191000FF31884214D21848D0F838143830445473
:1019200000223838D0F83804401C134938310A54A2
:101930001148D0F83804401C3839C1F838040BE09D
:101940000D48D0F83804401E0B4938310C54383952
:101950000868082100F068F90D2C07D1012107481B
:1019600080F85010064880F8501004E002490868DA
:10197000214600F059F910BD0CEB002060EF00206B
:10198000C0EF002021B1828942F40052828104E03C
:1019900082894DF6FF731A4082817047024600200B
:1019A000B1F5007F00D100BF13880B400BB10120BF
:1019B00000E00020704770B5024600240023002597
:1019C000002040F66A16B14200D100BFC1F34215B3
:1019D00001F01F03012606FA03F3012D02D19689B7
:1019E000334006E0022D02D1168A334001E0968A88
:1019F00033400C12012606FA04F41688344013B161
:101A00000CB1012000E0002070BDF0B503460024B9
:101A100000260025002040F66A17B94200D100BF19
:101A20001846C1F3421401F01F06012707FA06F514
:101A3000012C01D10C3004E0022C01D1103000E067
:101A400014301AB107682F43076002E00768AF43FC
:101A50000760F0BD2DE9FF4705460E460024A1466C
:101A600000BFA046B08900B100BF2C8A24F44054C6
:101A7000F08804432C82AC8941F20C608443B08826
:101A800031890843718908430443AC81AC8A24F44A
:101A90004074B0890443AC826846FFF7A7FC204835
:101AA000854202D01F48854202D1DDF80C9001E04A
:101AB000DDF80890A88900F4004040B109EBC900A6
:101AC00000EB091031684900B0FBF1F707E009EBC2
:101AD000C90000EB091031688900B0FBF1F7642000
:101AE000B7FBF0F004012009642101FB1078A889FC
:101AF00000F4004040B1322000EBC800B0FBF1F030
:101B000000F00700044308E0322000EB08106421D5
:101B1000B0FBF1F000F00F0004432C81BDE8FF871B
:101B2000001001400014014001468888C0F30800FD
:101B30007047C1F308028280704700BFFEE710B50E
:101B400086B00446A26AA16941EA02000121FFF7BA
:101B50001DFC0121A068FFF739FC00208DF816005C
:101B600001208DF8170002208DF815008DF8140063
:101B7000A08C049004A9206AFEF700FD02208DF8D5
:101B80001400A08A049004A92069FEF7F7FC2279CA
:101B9000217F2069FEF73AFD227994F82C10206A03
:101BA000FEF734FDE06800900020ADF80400ADF8C9
:101BB0000600ADF80800ADF80C000C20ADF80A00E6
:101BC00069462068FFF746FF204600F016F801221C
:101BD00040F225512068FFF718FF01212068FFF728
:101BE000D1FE06B010BD0021C0F83814002200F16B
:101BF0003801D0F83834CA54704738B504464FF429
:101C0000A060FFF7D7F894F830008DF800000120AD
:101C10008DF8010003208DF8020001208DF80300EB
:101C20006846FFF78BF838BD70B504460D46294667
:101C30002046FFF77EFF00BF80212046FFF7AEFE63
:101C40000028F9D070BD10B50446206800F0BEF839
:101C5000002020606060A06010BD2DE9FF410646B5
:101C60000C461746002500BF0FE0216851F83500EB
:101C70003946FEF7D0FA38B9206800EBC50103C930
:101C8000C6E90001BDE8FF816D1C6068A842ECD880
:101C90006846FFF745F9DDE90001CDE90201C6E933
:101CA000000100BFEEE7F7B5044600260025D4E9A1
:101CB0000110401A012819DCA0684000401CA060F7
:101CC000A168C80000F0B0F8064600BF07E0206831
:101CD00000EBC50006EBC50105C805C16D1C6068B9
:101CE000A842F4D8206800F071F826606168481CAA
:101CF0006060206800EBC100DDE9011206C0FEBD96
:101D00002DE9F04104460E46154600270EB9BDE800
:101D1000F0811DB92046E1688847F8E765606800F2
:101D2000A060A168C80000F07FF80746002006E028
:101D300007EBC00106EBC0030CCB0CC1401CA84252
:101D4000F6D3206800F042F8276000BFDFE70146C5
:101D500048687047014A024900F013B8A51D000801
:101D600020F0002002E008C8121F08C1002AFAD1A2
:101D700070477047002001E001C1121F002AFBD10B
:101D800070472DE9F04116460F460446002503E052
:101D90003946B047641C6D1C20780028F8D12846CD
:101DA000BDE8F08170B504460E46074DE1B22868E3
:101DB000FFF7BFFE00BF80212868FFF7EFFD002876
:101DC000F9D0204670BD00000CEB002010B50028B3
:101DD00021D0114B0022001F196803E0814203D873
:101DE0000A4649680029F9D152B11368841A9C4205
:101DF00004D1006818441060104602E0506000E012
:101E0000186039B102680B1A934203D10B681A4467
:101E100002604968416010BD24F00020FEF71FFCFD
:101E200001E0FEF769FAFCE7F0B50B30154D20F044
:101E300007010024144A0FE003688B420BD38B4246
:101E400005D95E1A43184768C3E9006700E0436894
:101E5000136002C004E0021D10680028ECD1204687
:101E6000002802D1286808B10020F0BD064A0748C2
:101E70001060074A121A22F00702C0E9002401206C
:101E80002860D7E728F0002024F0002054F000203C
:101E900050F200200000024001000000010000009C
:101EA0000000000001000000060000001904000806
:101EB00008000000000802400020000004000000AC
:101EC000020D000000200000280000001904000896
:101ED0000C000000F41E0008000000202CF00000A0
:101EE00058020008902400082CF00020240600006E
:101EF000741D0008412D0102030404270607080988
:101F0000D40232BC328432693259324E3245323FC9
:101F1000323A32363232322F322D322B32293227B8
:101F200032253224322332213220321F321E5A1DF2
:101F300004321C321B5A1A045A19045A18045A172C
:101F4000049A16045A1504DA14049A1304DA1204D3
:101F50000A1111040A1110040A190F040A1D0E04B3
:101F60000A210D040A290C040A350B040A450A0447
:101F70000A5D09040A8108040AC107040AFD06046F
:101F8000093E040AFD050409FD040923040AFD04B1
:101F90000409FD0409FD0409FD040945040AFD03C3
:101FA0000409FD0409FD0409FD0409FD0409FD04FB
:101FB00009FD0409FD0409FD0409FD04095B040A87
:101FC000FD020409FD0409FD0409FD0409FD0409DD
:101FD000FD0409FD0409FD0409FD0409FD0409FDD2
:101FE0000409FD0409FD0409FD0409FD0409FD04BB
:101FF00009FD0409FD0409FD0409FD0409FD0409A6
:10200000FD0409FD0409FD0409FD0409FD0409FDA1
:102010000409FD0409FD0409FD0409FD0409FD048A
:1020200009FD0409FD0409FD0409FD0409FD040975
:10203000FD0409FD0409FD0409FD0409FD0409FD71
:102040000409FD0409FD0409FD0409FD0409FD045A
:1020500009FD0409FD0409FD0409FD0409FD040945
:10206000FD0409FD0409FD04095D040A11010C29A0
:1020700008091A0CA904091618092224091E6C095A
:1020800012A409FD0409FD0409FD0409FD0409FD6C
:102090000409FD0409FD0409FD0409FD0409FD040A
:1020A00009FD0409FD0409FD0409FD0409FD0409F5
:1020B000FD0409FD0409FD0409FD0409FD0409FDF1
:1020C0000409FD0409FD0409FD0409FD0409FD04DA
:1020D00009FD0409FD0409FD0409FD0409FD0409C5
:1020E000FD0409FD0409FD0409FD0409FD0409FDC1
:1020F0000409FD0409FD0409FD0409FD0409FD04AA
:1021000009FD0409FD0409FD0409FD0409FD040994
:10211000FD0409FD0409FD0409FD0409FD0409FD90
:102120000409FD0409FD0409FD040956040AFD0320
:102130000409FD0409FD0409FD0409FD0409FD0469
:1021400009FD0409FD0409FD0409FD04095B040AF5
:10215000FD040409FD0409FD0409FD040945040A00
:10216000FD050409FD040923040AFD0604093E04D3
:102170000AC107040A8108040A5D09040A450A0421
:102180000A350B040A290C040A210D040A1D0E0449
:102190000A190F040A1110040A111104DA12049A20
:1021A0001304DA14045A15049A16045A17045A1818
:1021B000045A19045A1A04321B321C5A1D04321EC6
:1021C000321F322032213223322432253227322963
:1021D000322B322D322F32323236323A323F3245C2
:1021E000324E32593269328432BC23C5021A60043D
:1021F000329E326F3258324B5A413C32355A315846
:10220000322A32285A267C5A228C299829A029A8B9
:1022100029B429BC29C469D429E069F029FC29041E
:102220005A15049A14045A13049A1204DA1104DA9F
:1022300010040A110F040A150E040A190D040A21CC
:102240000C040A290B040A390A040A5109040A7504
:1022500008040AAD07040AFD06040916040AFD0570
:102260000409EA040AFD040409FD0409FD0409C87F
:10227000040AFD030409FD0409FD0409FD0409FD28
:102280000409FD0409FD0409FD0409FD04093204E3
:102290000AFD020409FD0409FD0409FD0409FD0409
:1022A00009FD0409FD0409FD0409FD0409FD0409F3
:1022B000FD0409FD0409FD0409FD0409FD0409FDEF
:1022C0000409FD0409FD0409FD0409FD0409FD04D8
:1022D00009FD0409FD0409FD0409FD0409FD0409C3
:1022E000FD0409FD0409FD0409FD0409FD0409FDBF
:1022F0000409FD0409FD0409FD0409FD0409FD04A8
:1023000009FD0409FD0409FD04093D040AFD030457
:1023100009FD0409FD0409FD0409FD0409FD040982
:10232000FD0409FD0409FD040932040AFD04040941
:10233000FD0409FD0409C8040AFD050409EA040AAC
:10234000FD06040916040AAD07040A7508040A51BB
:1023500009040A390A040A290B040A210C040A197F
:102360000D040A150E040A110F04DA1004DA110420
:102370009A12045A13049A14045A15045A16045A49
:10238000170432185A1904321A321B321C321D3209
:102390001E321F32213222322432263228322A3291
:1023A0002D32313235323A3241324B3258326F327D
:1023B0009E2356022303071A0C08238C011A4C048F
:1023C0001A24041A070432F232E232D832D032CC64
:1023D00032C95AC808291029182920292829302942
:1023E000382940294829502958B3F006141C0240C6
:1023F00022046A800C9A080C5A100C4A0C24191BEF
:10240000211C1001409F291B211AC25111491C296E
:102410000A520A191019642910320932254B7D1805
:102420003B01FF01FF01FF01FF6134024010420840
:102430006D0C0240400C211440AD133308011331E0
:10244000171B08A9041AC704321C13A5165B088DB4
:102450001C294012082B01031042042C08024018CA
:10246000291042021404024019551A0115B38813A9
:102470004A04602924A960321D5AB560695011AC24
:102480000202091029A4B9600A118060B10000009D
:04000005080001AD41
:00000001FF
