:020000040800F2
:1000000020F70020C1010008D90E00085B07000896
:10001000D50E0008EB0200081B1F000800000000BE
:100020000000000000000000000000004917000868
:10003000ED04000800000000D11500088519000833
:10004000DB010008DB010008DB010008DB01000820
:10005000DB010008DB01000801050008DB010008E6
:10006000DB010008DB010008DB010008DB01000800
:10007000DB010008DB010008DB010008DB010008F0
:10008000DB010008DB010008DB010008DB010008E0
:10009000DB010008DB010008DB010008DB010008D0
:1000A000DB010008F1190008DB010008DB01000892
:1000B000011A0008111A0008DB010008DB01000822
:1000C000DB010008DB010008DB010008DB010008A0
:1000D000DB0100085D1C0008DB010008DB010008F3
:1000E0005D050008DB010008DB010008DB010008FA
:1000F000DB010008DB010008DB010008DB01000870
:10010000DB010008DB010008DB010008DB0100085F
:10011000DB010008DB010008DB010008DB0100084F
:10012000DB010008DB010008DB010008DB0100083F
:10013000DB010008DB010008DB010008DB0100082F
:10014000DB010008DB010008DB010008DB0100081F
:10015000DB010008DB010008DB010008DB0100080F
:10016000DB010008DB010008DB010008DB010008FF
:10017000DB010008DB010008DB010008DB010008EF
:10018000DB010008DB010008DB010008DB010008DF
:10019000DB010008DB010008DB010008DB010008CF
:1001A000DB010008DB010008DB010008DFF80CD0F0
:1001B00000F052F800480047FD21000820F7002019
:1001C0000648804706480047FEE7FEE7FEE7FEE7F1
:1001D000FEE7FEE7FEE7FEE7FEE7FEE78919000817
:1001E000AD01000840EA01039B0703D009E008C9FC
:1001F000121F08C0042AFAD203E011F8013B00F8EC
:10020000013B521EF9D27047D2B201E000F8012B37
:10021000491EFBD270470022F6E710B513460A4686
:1002200004461946FFF7F0FF204610BD421C10F8A7
:10023000011B0029FBD1801A704710B5002200E095
:10024000521C835C8C5CA34201D1002BF8D1D8B244
:10025000E1B2401A10BD0000064C074D06E0E06810
:1002600040F0010394E8070098471034AC42F6D3FD
:10027000FFF7A0FF202300084023000870B58C186A
:1002800010F8015B15F0070301D110F8013B2A11AA
:1002900006D110F8012B03E010F8016B01F8016B97
:1002A0005B1EF9D12B0705D40023521E0DD401F893
:1002B000013BFAE710F8013BCB1A921C03E013F85C
:1002C000015B01F8015B521EF9D5A142D8D3002091
:1002D00070BD10B50446204600F058FC10BD10B5A6
:1002E0000446204600F04DFC10BD00BFFEE70000B4
:1002F00070B588B0044620216846FFF78CFF0226BF
:1003000000250121D4F8AC0001F0A8FB20B10121A7
:10031000D4F8AC0001F093FB94F8C400012832D16A
:100320001B480068401C1A4908600A282BD100208D
:100330000860D4F8C000401CC4F8C00000251BE0D1
:10034000032D06DB134951F82510D4F8C00088426C
:100350000EDB104951F82510D4F8C00090FBF1F0E5
:100360000A2190FBF1F201FB12004DF8250002E09A
:1003700017204DF825006D1C082DE1DB324669463B
:10038000204601F00FFA204601F0AEFA08B070BD29
:10039000ECF00020002300081CB504460121A068F1
:1003A00001F018F9A088009001208DF804000020C9
:1003B0008DF8060002208DF8070000208DF805005A
:1003C0006946206800F05AF91CBD828801684A839A
:1003D00000BF7047828801680A8300BF7047000031
:1003E00070B588B0002007903348FFF71FFF05461F
:1003F0000024002602A800F0B7FD304890F8500015
:10040000012804D02E4890F8500001284ED1032D29
:1004100032DB2CA001F08EFE2AE02748005D8DF82B
:100420001C002548611C405C8DF81D002248A11C61
:10043000405C8DF81E0000208DF81F00224807AA9E
:10044000014603696846984702A8069BDDE9001249
:10045000984702A8059988471CA10298FFF7EDFE6E
:1004600008B9002607E00126E41C19A001F062FE8D
:10047000A01CA842D1D900BF16480078012804D199
:100480001EB915A001F056FE05E0012011490870C3
:1004900014A001F04FFE0021084880F850100848D1
:1004A00080F850100448383801F08DFD02A80499F6
:1004B000884708B070BD00000CEC002028F0002038
:1004C00088F00020200A0000FCF000204552520075
:1004D0000A000000D8EA00200A5B4572726F7221A0
:1004E0005D0A00005B4F4B215D0A0000704701B5BB
:1004F00000BF0098401E00900028FAD108BD0000FF
:1005000010B511A001F016FE1049086900F05CF862
:10051000C8B10F4890F8510030B10E4800F03BFBD5
:1005200001210B4800F03EFB0B4890F8510030B120
:10053000084800F030FB0121074800F033FB034975
:10054000086900F03BF810BD450000007422000867
:1005500028F00020DCEA002088F0002010B512A06E
:1005600001F0E8FD1149086900F02EF8D8B11048F3
:1005700090F85100012806D00E4800F00CFB002135
:100580000B4800F00FFB0C4890F85100012806D0F2
:10059000084800F000FB0021074800F003FB034976
:1005A000086900F00BF810BD440000009C22000810
:1005B00028F00020E8EA002088F0002001490860C7
:1005C00070470000143C014001460020034A1268B5
:1005D0000A400AB1012000E000207047143C0140AD
:1005E000002123498279002A3AD00A46126803681A
:1005F0009A430B461A600A1D126803689A430B1D42
:100600001A60027911440A6803681A430A60184A9A
:100610000832126803689A43154B08331A601A1D92
:10062000126803689A43124B0C331A604279102AFD
:100630000ED11A1F126803681A430D4B08331A6053
:100640001A1D126803681A43094B0C331A600DE037
:100650000749427911440A6803681A430A6005E0B1
:10066000027911440A6803689A430A6070470000DF
:10067000003C0140002180F8C4107047F0B50A46E4
:1006800000210023002400BF3DE0012505FA01F30D
:10069000156805EA03049C4234D105684F0003261F
:1006A000BE40B543056015794E00B5400668354338
:1006B00005601579012D02D01579022D16D18568B6
:1006C0004F000326BE40B543856055794E00B540C6
:1006D000866835438560456801268E40B543456090
:1006E000456896798E40B6B235434560C5684F007F
:1006F0000326BE40B543C560D5794E00B540C668F7
:100700003543C560491C1029BFD3F0BDF0B50023A7
:1007100000244D07ED0E02FA05F3CE1000F120057E
:1007200055F826504E07F70E0F26BE40B543CF10A2
:1007300000F1200646F82750CE1000F1200555F8AC
:10074000265045EA0304CE1000F1200545F8264066
:10075000F0BD418370470183704700BFFEE710B5CD
:1007600000F02EF800F00CF800F01EF800F028F968
:1007700000F00EF800F026F800F030F810BD000090
:1007800010B5024800F02AF910BD00000CEB002063
:1007900010B5034800F03BF9024800F038F910BDED
:1007A00010F000201CF0002010B5034800F038F9CC
:1007B000024800F035F910BD742200089C220008A0
:1007C0007047000010B5034800F04CF9024800F0F3
:1007D00049F910BD28F0002088F0002000B589B04C
:1007E00001A800F007FD202201A97448FFF7FAFCD8
:1007F00005A800F0ABFCDDE90501CDE907016F4874
:100800000A4643690799984705A800F0C9FCDDE945
:100810000501CDE9070169480A46436907999847E8
:1008200005A800F0A1FCDDE90501CDE90701634859
:100830000A4643690799984705A800F0A3FCDDE93B
:100840000501CDE907015D480A46436907999847C4
:1008500005A800F06DFCDDE90501CDE90701574869
:100860000A4643690799984705A800F0F1FBDDE9BE
:100870000501CDE9070151480A46436907999847A0
:1008800005A800F00FFCDDE90501CDE907014B48A3
:100890000A4643690799984705A800F0E7FBDDE998
:1008A0000501CDE9070145480A464369079998477C
:1008B00005A800F0E9FBDDE90501CDE907013F48A6
:1008C0000A4643690799984705A800F0B3FBDDE99C
:1008D0000501CDE9070139480A4643690799984758
:1008E00005A800F009FCDDE90501CDE90701334861
:1008F0000A4643690799984705A800F00BFCDDE913
:100900000501CDE907012D480A4643690799984733
:1009100005A800F073FBDDE90501CDE907012748D3
:100920000A4643690799984705A800F075FBDDE979
:100930000501CDE9070121480A464369079998470F
:1009400005A800F03FFBDDE90501CDE907011B48E3
:100950000A4643690799984705A800F041FBDDE97D
:100960000501CDE9070115480A46436907999847EB
:1009700005A800F031FCDDE90501CDE907010F48CC
:100980000A4643690799984705A800F099FBDDE9F5
:100990000501CDE9070109480A46436907999847C7
:1009A00005A800F00BFCDDE90501CDE907010348CE
:1009B0000A4643690799984709B000BDFCF000203A
:1009C00010B5024800F084F810BD0000D4EB002000
:1009D00010B50446204600F02CF810BD30B589B0A3
:1009E0000446202101A8FFF716FC4FF0FF352046F2
:1009F00001F076F8204601F04BF8204600F03EF872
:100A00002A4601A9204600F0CDFE09B030BD10B540
:100A100004462046FFF7C0FC2046FFF7DBFC10BD74
:100A200010B50446204600F081F8204600F062F838
:100A300010BD1CB504460121A06800F0CBFDA088C4
:100A4000009001208DF8040000208DF806000120A0
:100A50008DF8070000208DF8050069462068FFF733
:100A60000DFE1CBD10B50446204600F0DFF8204600
:100A700000F012FA204600F09DF910BD70B5054651
:100A8000002400BF0CE004EB440105EB8100FFF7FC
:100A9000D0FF04EB440105EB8100FFF720FC641C50
:100AA000082CF0DB002410E004EB440205F16001A7
:100AB00001EB8200FFF78CFF04EB440205F16001BB
:100AC00001EB8200FFF705FC641C032CECDB70BD1E
:100AD00010B50446204601F022FA10BD704710B54B
:100AE00004466068804710BD07B5DDE90112C0E922
:100AF00000120EBD1CB504460121880300F08AFDDA
:100B0000204600F026F8617B084600F01FFE2069B1
:100B1000009000208DF80400207F8DF80500012052
:100B20008DF806006846FFF75BFD1CBD1CB504464A
:100B30000121A06800F04EFDA088009000208DF8F3
:100B4000040002208DF8070069462068FFF796FD33
:100B50001CBD38B504464FF4C06000F0FBF9207DA1
:100B60008DF8000094F820008DF8010094F824001E
:100B70008DF8020001208DF80300684600F0AEF900
:100B800038BD828801684A8300BF70478288016847
:100B90000A8300BF7047828801684B6953404B61EC
:100BA00000BF704770B504460D465DB1B4F84C10F7
:100BB000A06CFFF7D0FD00215120015507A001F0E6
:100BC000B9FA0AE0B4F84C10A06CFFF7C2FD01219D
:100BD0005120015510A001F0ADFA70BD0A447269B0
:100BE00076652073746F70206F75747075742C2027
:100BF0004E6F7720796F752063616E20726F74611C
:100C0000746520746865206D6F746F72206D616EFD
:100C100075616C6C790A00000A4472697665204B34
:100C2000656570204F75747075740A001CB50446B4
:100C300020340121D4E900209047A08900900120B0
:100C40008DF8040000208DF8060001208DF80700C3
:100C500002208DF804008DF805006946A068FFF7B2
:100C60000DFDA27BE17BA068FFF750FD0121D4E9D7
:100C700004209047A08B009001208DF804000020F4
:100C80008DF8060001208DF8070002208DF8050080
:100C90006946A069FFF7F2FCA18BA069FFF759FD37
:100CA0000121D4E908209047A08D009001208DF803
:100CB000040000208DF8060001208DF807000220B6
:100CC0008DF805006946A06AFFF7D8FCA18DA06ADF
:100CD000203CFFF73EFD1CBD70B504460026656D47
:100CE000002D00DA6D420121206800F0B7FE00B946
:100CF00070BD0121206800F0A2FE2846192D1BD0EE
:100D0000A0F59850883868B1A0F598508838E8B9AF
:100D1000244801680068401C224A1060224850F8AC
:100D2000216017E01F4801680068401C1D4A1060E0
:100D30001E4850F821600DE01A4801680068401C08
:100D4000184A10601A4850F8216003E0681C1549E1
:100D5000086000BF00BF032E00D20326206806648F
:100D600070002168C8625120005D18B10D4800680C
:100D7000A8420FD92068008C20F480502168088494
:100D80000021206800F05EFE002084F84F00054935
:100D9000086005E02068008C40F4805021680884D9
:100DA00000BFA5E7D4EA002010000020509C0020DE
:100DB00070EA002010B588B004460121D4E9012072
:100DC000904705A800F034FF09200690B320ADF845
:100DD00014000020ADF81C00ADF8160005A920682D
:100DE00000F0E4FE7020ADF800000120ADF8020034
:100DF0000020ADF80400042002900220ADF80C00A1
:100E00000020ADF810006946E2682068904708218C
:100E10002269206890470121206800F001FE01212D
:100E2000206800F00EFF0121206800F008FE01227A
:100E30001146206800F023FE0021206800F002FE29
:100E400008B010BD10B50446606DC00F84F84E00A8
:100E500094F84E0020B9A18FA06BFFF77AFC03E055
:100E6000A18FA06BFFF777FC0121512001550120D4
:100E700084F84F000020074908601421206800F022
:100E800090FE0A216269206890470121206800F0E5
:100E9000D9FD10BDD4EA002038B504464FF4E06017
:100EA00000F058F8207E8DF8000001208DF8010038
:100EB0008DF802008DF80300684600F00FF838BD89
:100EC00000BF90F84F10012903D15121095C01297D
:100ED000F7D0704700BFFEE77047000070B50021F3
:100EE00000230F22C4781CB3174C246804F4E06478
:100EF000C4F5E064C4F30721C1F10404E3B20A417C
:100F000044789C40E1B28478144021430C07210EC0
:100F10000E4C05786155047804F01F050124AC409F
:100F200005786D11AD0005F1E025C5F8004109E037
:100F3000047804F01F050124AC40054D06787611B5
:100F400045F8264070BD00000CED00E000E400E034
:100F500080E100E002490143024A1160704700004D
:100F60000000FA050CED00E010B588B0044601A8B9
:100F700000F018F8DDE90101CDE90301064805900C
:100F80000648069006480790142203A92046FFF75A
:100F900029F908B010BD0000DD0A0008DF0A0008CA
:100FA000E90A00080CB504A1009105490191DDE9A9
:100FB0000012C0E900120CBD4F726465720000009F
:100FC000F51300080CB504A1009104490191DDE975
:100FD0000012C0E900120CBD41432B003912000879
:100FE0000CB504A1009104490191DDE90012C0E9AA
:100FF00000120CBD41432D00691200080CB504A17C
:10100000009104490191DDE90012C0E900120CBD14
:1010100044432B00991200080CB504A10091044927
:101020000191DDE90012C0E900120CBD44432D001E
:10103000C11200080CB504A1009104490191DDE939
:101040000012C0E900120CBD444D3200E912000844
:101050000CB504A1009104490191DDE90012C0E939
:1010600000120CBD444D2B00391300080CB504A12F
:10107000009104490191DDE90012C0E900120CBDA4
:10108000444D46006D1300080CB504A100910449BD
:101090000191DDE90012C0E900120CBD444D52007F
:1010A000951300080CB504A1009104490191DDE9F4
:1010B0000012C0E900120CBD444D2D00C113000800
:1010C0000CB504A1009104490191DDE90012C0E9C9
:1010D00000120CBD454E44000D1400080CB504A1CF
:1010E000009104490191DDE90012C0E900120CBD34
:1010F00045525200291400080CB504A1009104497E
:101100000191DDE90012C0E900120CBD4C432B0037
:101110003D1400080CB504A1009104490191DDE9DA
:101120000012C0E900120CBD4C432D0065140008EC
:101130000CB504A1009104490191DDE90012C0E958
:1011400000120CBD4C4D32008D1400080CB504A1EA
:10115000009104490191DDE90012C0E900120CBDC3
:101160004C4D2B00DD1400080CB504A1009104497E
:101170000191DDE90012C0E900120CBD4C4D4600A2
:10118000111500080CB504A1009104490191DDE995
:101190000012C0E900120CBD4C4D52003915000878
:1011A0000CB504A1009104490191DDE90012C0E9E8
:1011B00000120CBD4C4D2D00651500080CB504A1A6
:1011C000009104490191DDE90012C0E900120CBD53
:1011D00052455300991500080CB504A1009104492B
:1011E0000191DDE90012C0E900120CBD5354410029
:1011F000B515000810B588B0044600200090019095
:101200000290084803900848049008480590084850
:10121000069008480790202269462046FEF7E2FF24
:1012200008B010BD272000083B20000887200008D8
:10123000E12000082F21000810B506A000F07AFF79
:101240000648FFF7C7F80648FFF7C4F80548FFF758
:101250004EF910BD5B41432B5D2000001CF00020C7
:1012600010F00020C0C62D0010B506A000F062FFEF
:101270000648FFF7AAF80648FFF7A7F80548FFF762
:1012800036F910BD5B41432D5D2000001CF00020AD
:1012900010F00020A025260010B505A000F04AFFA0
:1012A0000548FFF797F80548FFF721F910BD000042
:1012B0005B44432B5D20000010F00020C0C62D00D1
:1012C00010B505A000F036FF0548FFF77EF8054889
:1012D000FFF70DF910BD00005B44432D5D200000B9
:1012E00010F00020A025260010B50FA000F022FF6E
:1012F0000F48C06D5A2807DB0E480D49486508465F
:10130000C06DB438C86507E042F2107008494865FE
:101310000846C06DB430C8650548FFF793FD044822
:10132000FFF7CEFD10BD00005B444D325D20000094
:1013300028F00020F0D8FFFF10B509A000F0FAFE59
:1013400041F28830084948650846C06D5A30C86582
:101350000846FFF777FD0448FFF7B2FD10BD000017
:101360005B444D2B5D20000028F0002010B506A046
:1013700000F0E0FE1920064948650846FFF762FDC7
:101380000348FFF79DFD10BD5B444D465D20000006
:1013900028F0002010B507A000F0CCFE6FF0180078
:1013A000064948650846FFF74DFD0448FFF788FDEC
:1013B00010BD00005B444D525D20000028F000206D
:1013C00010B508A000F0B6FE08480949486508466F
:1013D000C06D5A38C8650846FFF734FD0448FFF76A
:1013E0006FFD10BD5B444D2D5D20000078ECFFFFCC
:1013F00028F0002010B502A000F09CFE10BD0000F7
:101400005B446F426173655D0A00000010B503A084
:1014100000F090FE0348FFF72DF910BD5B454E44E8
:101420005D0000000CEB002010B502A000F082FE71
:1014300010BD00005B4552525D20000010B505A0B4
:1014400000F078FE0548FEF7C5FF0548FFF74FF8A6
:1014500010BD00005B4C432B5D2000001CF0002001
:10146000C0C62D0010B505A000F064FE0548FEF7CB
:10147000ACFF0548FFF73BF810BD00005B4C432D67
:101480005D2000001CF00020A025260010B50FA054
:1014900000F050FE0F48C06D10F15A0F07DB0E48E8
:1014A0000C4948650846C06DB438C86507E042F28B
:1014B0001070084948650846C06DB430C8650548D5
:1014C000FFF7C0FC0348FFF7FBFC10BD5B4C4D323F
:1014D0005D20000088F00020F0D8FFFF10B509A0C3
:1014E00000F028FE41F28830084948650846C06D82
:1014F0005A30C8650846FFF7A5FC0448FFF7E0FC32
:1015000010BD00005B4C4D2B5D20000088F00020DA
:1015100010B506A000F00EFE1920064948650846E1
:10152000FFF790FC0348FFF7CBFC10BD5B4C4D462A
:101530005D20000088F0002010B507A000F0FAFD43
:101540006FF01800064948650846FFF77BFC044821
:10155000FFF7B6FC10BD00005B4C4D525D20000053
:1015600088F0002010B508A000F0E4FD0848094903
:1015700048650846C06D5A38C8650846FFF762FCE2
:101580000448FFF79DFC10BD5B4C4D2D5D20000015
:1015900078ECFFFF88F0002010B503A000F0CAFD32
:1015A000034800F0BBF810BD5B5245535D000000DE
:1015B0000CEB002010B503A000F0BCFD034800F0C8
:1015C000DDF910BD5B5354415D0000000CEB0020C1
:1015D0007047000029B1064A12680243044B1A60A2
:1015E00004E0034A12688243014B1A60704700000E
:1015F0003038024029B1064A12680243044B1A608F
:1016000004E0034A12688243014B1A6070470000ED
:101610004038024029B1064A12680243044B1A605E
:1016200004E0034A12688243014B1A6070470000CD
:1016300044380240F0B50021002200240225002693
:101640000223324F3F6807F00C0121B1042905D075
:10165000082937D105E02E4F076036E02D4F07608F
:1016600033E02A4F3F1F3F68C7F38056274F3F1F85
:101670003F6807F03F036EB1264FB7FBF3F7DFF883
:101680008CC0ACF1040CDCF800C0CCF3881C07FB68
:101690000CF40CE01E4FB7FBF3F7DFF870C0ACF1B1
:1016A000040CDCF800C0CCF3881C07FB0CF4174FCB
:1016B0003F1F3F68C7F301477F1C7D00B4FBF5F770
:1016C000076002E0124F076000BF00BF0F4F3F6886
:1016D00007F0F0010909104F7A5C0768D7404760AE
:1016E0000A4F3F6807F4E051890A0B4F7A5C47685C
:1016F000D7408760054F3F6807F46041490B064FAC
:101700007A5C4768D740C760F0BD000008380240E7
:101710000024F40040787D010000002010B588B05E
:101720000446202207496846FEF75CFD0020C4F805
:10173000C00084F8C40002226946204600F032F856
:1017400008B010BDE02200087047000030B500224C
:101750008B071C0F0F2303FA04F20B4B8C1053F86A
:1017600024309343084C8D1044F8253023468C10C8
:1017700053F824308C07240F00FA04F42343024C5E
:101780008D1044F8253030BD0838014070B505464D
:101790000C461CB12846FFF7F9F902E02846FFF78E
:1017A000F0F970BD30B50346002000BF06E051F8E7
:1017B000205003F1840444F82050401C0828F6DB34
:1017C000C3F8A82030BD00000CB5002001900090A7
:1017D0004148006840F480303F49086000BF3E48FF
:1017E000006800F4003000900198401C01900098BF
:1017F00018B90198B0F5A04FF1D13748006800F44E
:10180000003010B10120009001E00020009000980D
:10181000012860D130484030006840F080502E49A7
:10182000403108602D48006840F440402B49086072
:1018300029480830006828490831086008460068CF
:1018400040F4004008600846006840F4A05008607A
:101850002348091F0860081F006840F08070091FB6
:10186000086000BF1C48006800F000700028F9D034
:101870001A48006840F480301849086000BF1748D3
:10188000406800F480300028F9D01448006840F423
:1018900000301249086000BF1048406800F4003072
:1018A0000028F9D040F205700E4908600A48083057
:1018B000006820F003000849083108600846006805
:1018C00040F00200086000BF03480830006800F0E4
:1018D0000C000828F8D10CBD003802400070004010
:1018E000195A4007003C024070B50546002400BF6D
:1018F0000EE00122A2401F4B1B7802EA030104EB19
:10190000440305F1600202EB8300FFF73FFF641C14
:10191000032CEEDB002412E005F18402154B1B784A
:1019200052F82320144B9A5C0123A34002EA0301DE
:1019300004EB440205EB8200FFF728FF641C072C30
:10194000EADB0C4A1278D5F8A800904201D00120B9
:1019500000E00020014605F15400FFF717FF05489D
:101960000078401CC0B203490870082801DB002041
:10197000087070BDE8F00020C4220008012180F842
:10198000C41070477047000010B51548006840F457
:101990007000134908601348006840F001001149C5
:1019A000086000200F49083108600E4800680E49A1
:1019B00008400C4908600D48091D0860081F0068B0
:1019C00020F48020091F0860002006490C310860BF
:1019D000FFF7FAFE4FF0006001498039086010BD42
:1019E00088ED00E000380240FFFFF6FE10300024D2
:1019F00010B50248FEF77CFC10BD00000CEB002087
:101A000010B50248FFF768F910BD000028F000206B
:101A100010B50248FFF760F910BD000088F0002003
:101A200021B1028842F08002028004E002884FF671
:101A30007F731A4002807047CA4302827047CA43CC
:101A40000282704721B1028842F00102028004E064
:101A500002884FF6FE731A400280704730B5024686
:101A6000002000230024158A05EA0103958905EA70
:101A7000010413B10CB1012000E0002030BD1AB107
:101A800083890B43838102E083898B438381704781
:101A90003EB50446AC3401216068FFF7BBFD04206D
:101AA000019044F24F60ADF800000020ADF808004E
:101AB000ADF8020001208DF80A006946206800F0A8
:101AC00075F801212068FFF7B7FF01221146206851
:101AD000FFF7D5FF54F8AC090121FFF7B3FF3EBD76
:101AE00038B504464FF4E060FFF734FA94F8B400D8
:101AF0008DF8000000208DF8010003208DF8020011
:101B000001208DF803006846FFF7E8F938BD0000B2
:101B100070B5002200230024058C4EF6FF76354078
:101B20000584038C8488828B48F6FF752A404FF623
:101B3000FF452A400D884FF6FF7606EA05252A4321
:101B40004DF6FF752B408D8906EA05352B434D88F0
:101B500006EA05352B430A4DA84202D0094DA8429A
:101B600008D14BF6FF752C400D8A4FF6FF7606EA3A
:101B700085152C43848082838D680564038470BD41
:101B800000000140000401400A460021818B4FF211
:101B9000FF7319404FF6FF7303EA02231943818351
:101BA0007047C162704701647047000000220288DC
:101BB000184B98420ED0184B98420BD0B0F1804F82
:101BC00008D0164B984205D0154B984202D0154BC1
:101BD000984204D14FF68F731A404B881A43124B28
:101BE000984207D0114B984204D04FF6FF431A4059
:101BF0000B891A4302804B68C3620B880385054B2F
:101C0000984202D0044B984201D18B7A038601237B
:101C1000838270470000014000040140000400403E
:101C200000080040000C004000100040001400407C
:101C30004FF0FF31416000210180018141808172BC
:101C4000704721B1028842F00402028004E0028859
:101C50004FF6FB731A4002807047000010B53E49F2
:101C6000086840F2255100F096F8002873D03A49F0
:101C7000086800F049F9C4B2384890F84F000028CD
:101C800069D1364890F85100012864D1344890F861
:101C90004F0000285FD1324890F8510001285AD1F6
:101CA000082C21D12C48D0F83804002853D02A49D8
:101CB0000868082100F0A8F927490868202100F0E9
:101CC000A3F925490868082100F09EF92248D0F8B8
:101CD0003804401E2049C1F8380400211E48D0F8BD
:101CE00038243830815436E01B48D0F8380440F2AC
:101CF000FF31884214D21848D0F838143830445490
:101D000000223838D0F83804401C134938310A54BE
:101D10001148D0F83804401C3839C1F838040BE0B9
:101D20000D48D0F83804401E0B4938310C5438396E
:101D30000868082100F068F90D2C07D10121074837
:101D400080F85010064880F8501004E002490868F6
:101D5000214600F059F910BDD4EB002028F00020F6
:101D600088F0002021B1828942F40052828104E08F
:101D700082894DF6FF731A40828170470246002027
:101D8000B1F5007F00D100BF13880B400BB10120DB
:101D900000E00020704770B50246002400230025B3
:101DA000002040F66A16B14200D100BFC1F34215CF
:101DB00001F01F03012606FA03F3012D02D19689D3
:101DC000334006E0022D02D1168A334001E0968AA4
:101DD00033400C12012606FA04F41688344013B17D
:101DE0000CB1012000E0002070BDF0B503460024D6
:101DF00000260025002040F66A17B94200D100BF36
:101E00001846C1F3421401F01F06012707FA06F530
:101E1000012C01D10C3004E0022C01D1103000E083
:101E200014301AB107682F43076002E00768AF4318
:101E30000760F0BD2DE9FF4705460E460024A14688
:101E400000BFA046B08900B100BF2C8A24F44054E2
:101E5000F08804432C82AC8941F20C608443B08842
:101E600031890843718908430443AC81AC8A24F466
:101E70004074B0890443AC826846FFF7DBFB20481E
:101E8000854202D01F48854202D1DDF80C9001E066
:101E9000DDF80890A88900F4004040B109EBC900C2
:101EA00000EB091031684900B0FBF1F707E009EBDE
:101EB000C90000EB091031688900B0FBF1F764201C
:101EC000B7FBF0F004012009642101FB1078A88918
:101ED00000F4004040B1322000EBC800B0FBF1F04C
:101EE00000F00700044308E0322000EB08106421F2
:101EF000B0FBF1F000F00F0004432C81BDE8FF8738
:101F0000001001400014014001468888C0F3080019
:101F10007047C1F308028280704700BFFEE710B52A
:101F200086B00446A26AA16941EA02000121FFF7D6
:101F300051FB0121A068FFF76DFB00208DF8160012
:101F400001208DF8170002208DF815008DF814007F
:101F5000A08C049004A9206AFEF790FB02208DF863
:101F60001400A08A049004A92069FEF787FB227957
:101F7000217F2069FEF7CAFB227994F82C10206A91
:101F8000FEF7C4FBE06800900020ADF80400ADF857
:101F90000600ADF80800ADF80C000C20ADF80A0002
:101FA00069462068FFF746FF204600F016F8012238
:101FB00040F225512068FFF718FF01212068FFF744
:101FC000D1FE06B010BD0021C0F83814002200F187
:101FD0003801D0F83834CA54704738B504464FF445
:101FE000A060FEF7B7FF94F830008DF800000120E4
:101FF0008DF8010003208DF8020001208DF8030008
:102000006846FEF76BFF38BD70B504460D4629469D
:102010002046FFF77EFF00BF80212046FFF7AEFE7F
:102020000028F9D070BD10B50446206800F0BEF855
:10203000002020606060A06010BD2DE9FF410646D1
:102040000C461746002500BF0FE0216851F8350007
:102050003946FEF7F2F838B9206800EBC50103C92C
:10206000C6E90001BDE8FF816D1C6068A842ECD89C
:102070006846FFF733F8DDE90001CDE90201C6E962
:10208000000100BFEEE7F7B5044600260025D4E9BD
:102090000110401A012819DCA0684000401CA06013
:1020A000A168C80000F0B0F8064600BF07E020684D
:1020B00000EBC50006EBC50105C805C16D1C6068D5
:1020C000A842F4D8206800F071F826606168481CC6
:1020D0006060206800EBC100DDE9011206C0FEBDB2
:1020E0002DE9F04104460E46154600270EB9BDE81D
:1020F000F0811DB92046E1688847F8E7656068000F
:10210000A060A168C80000F07FF80746002006E044
:1021100007EBC00106EBC0030CCB0CC1401CA8426E
:10212000F6D3206800F042F8276000BFDFE70146E1
:1021300048687047014A024900F013B88521000839
:10214000F0F0002002E008C8121F08C1002AFAD1EE
:1021500070477047002001E001C1121F002AFBD127
:1021600070472DE9F04116460F460446002503E06E
:102170003946B047641C6D1C20780028F8D12846E9
:10218000BDE8F08170B504460E46074DE1B22868FF
:10219000FFF7BFFE00BF80212868FFF7EFFD002892
:1021A000F9D0204670BD0000D4EB002010B5002807
:1021B00021D0114B0022001F196803E0814203D88F
:1021C0000A4649680029F9D152B11368841A9C4221
:1021D00004D1006818441060104602E0506000E02E
:1021E000186039B102680B1A934203D10B681A4484
:1021F00002604968416010BDF4F00020FEF7AFFABC
:1022000001E0FEF7EDF8FCE7F0B50B30154D20F0DE
:1022100007010024144A0FE003688B420BD38B4262
:1022200005D95E1A43184768C3E9006700E04368B0
:10223000136002C004E0021D10680028ECD12046A3
:10224000002802D1286808B10020F0BD064A0748DE
:102250001060074A121A22F00702C0E90024012088
:102260002860D7E7F8F00020F4F0002024F10020E7
:1022700020F30020000002400100000001000000E7
:102280000000000001000000060000000105000839
:1022900008000000010000000200000000080240E9
:1022A0000020000004000000020D000000200000DB
:1022B000280000005D050008080000000200000082
:1022C00002000000C0F9A4B0999282F8809088833F
:1022D000C6A1868E89C7C8C18CA3BFFFFF000000BE
:1022E00000000000000000000000000017000000D7
:1022F0001700000017000000170000001700000082
:10230000010000000A00000064000000E803000073
:1023100010270000A086010040420F008096980020
:102320004023000800000020FCF000007C020008B0
:1023300094290008FCF00020240600005421000825
:10234000412D01020304042706070809A805237884
:10235000011A080432D232B2329B328B327E32748E
:10236000326C3265325F325A32553251324E324A15
:102370003248324532433240323E323D323B3239CE
:102380003238323632353234323332313230322F23
:102390005A2E04322D322C322B5A2A0432295A2832
:1023A0000432275A26045A25045A24045A23049A2C
:1023B00022045A21049A20049A1F049A1E04DA1D4A
:1023C00004DA1C04DA1B04DA1A040A1119040A15C7
:1023D00018040A1517040A1916040A1D15040A21FF
:1023E00014040A2513040A2D12040A3511040A3DA7
:1023F00010040A4D0F040A610E040A790D040A99AB
:102400000C040AC90B040AFD0A04E9040AFD0904C4
:102410000972040AFD080409FD040913040AFD07F2
:102420000409FD0409FD04091C040AFD060409FD54
:102430000409FD0409FD0409F1040AFD050409FD70
:102440000409FD0409FD0409FD0409FD0409FD0456
:1024500009FD0409A1040AFD040409FD0409FD04A1
:1024600009FD0409FD0409FD0409FD0409FD040931
:10247000FD0409FD0409FD0409FD0409FD0409FD2D
:102480000409FD0409FD0409FD04092A040AFD03E9
:102490000409FD0409FD0409FD0409FD0409FD0406
:1024A00009FD0409FD0409FD0409FD0409FD0409F1
:1024B000FD0409FD0409FD0409FD0409FD0409FDED
:1024C0000409FD0409FD0409FD0409FD0409FD04D6
:1024D00009FD0409FD0409FD0409FD0409FD0409C1
:1024E000FD0409FD0409FD0409FD0409FD0409FDBD
:1024F0000409FD0409FD0409FD0409FD0409FD04A6
:1025000009FD0409FD0409FD0409FD0409FD040990
:10251000FD0409FD0409FD0409FD0409FD0409FD8C
:102520000409FD0409FD0409FD0409FD0409FD0475
:1025300009FD0409FD0409FD0409FD0409FD040960
:10254000FD0409FD0409FD0409FD0409FD0409FD5C
:102550000409FD0409FD0409FD0409FD0409220420
:102560000AFD040409FD0409FD0409FD0409FD0434
:1025700009FD0409FD0409FD0409FD0409FD040920
:10258000FD0409FD0409FD0409FD0409FD0409FD1C
:102590000409FD04092A040AFD050409FD0409FDD6
:1025A0000409FD0409FD0409FD0409FD0409FD04F5
:1025B00009A1040AFD060409FD0409FD0409FD043E
:1025C00009F1040AFD070409FD0409FD04091C04BE
:1025D0000AFD080409FD040913040AFD090409722F
:1025E000040AFD0A04E9040AC90B040A990C040A46
:1025F000790D040A610E040A4D0F040A3D10040A05
:102600003511040A2D12040A2513040A2114040AA0
:102610001D15040A1916040A1517040A1518040AC8
:10262000111904DA1A04DA1B04DA1C04DA1D049AFC
:102630001E049A1F049A20045A21049A22045A2341
:10264000045A24045A25045A260432275A280432EC
:10265000295A2A04322B322C322D5A2E04322F3290
:102660003032313233323432353236323832393236
:102670003B323D323E3240324332453248324A32BA
:102680004E32513255325A325F3265326C327432C8
:102690007E328B329B32B232D22308011A78042365
:1026A0008B05236002329E326F3258324B32415AD0
:1026B0003A8C299C29B429C429D429E429F8322246
:1026C0003221321F321E321D321C321B321A5A196D
:1026D0000432185A17045A16045A15049A14045A44
:1026E00013049A1204DA1104DA10040A110F040A0E
:1026F000150E040A190D040A210C040A290B040AF8
:10270000390A040A5109040A7508040AAD07040AC3
:10271000FD06040916040AFD050409EA040AFD047D
:102720000409FD0409FD0409C8040AFD030409FDA8
:102730000409FD0409FD0409FD0409FD0409FD0463
:1027400009FD0409FD040932040AFD020409FD041F
:1027500009FD0409FD0409FD0409FD0409FD04093E
:10276000FD0409FD0409FD0409FD0409FD0409FD3A
:102770000409FD0409FD0409FD0409FD0409FD0423
:1027800009FD0409FD0409FD0409FD0409FD04090E
:10279000FD0409FD0409FD0409FD0409FD0409FD0A
:1027A0000409FD0409FD0409FD0409FD0409FD04F3
:1027B00009FD0409FD0409FD0409FD0409FD0409DE
:1027C000FD04093D040AFD030409FD0409FD040993
:1027D000FD0409FD0409FD0409FD0409FD0409FDCA
:1027E000040932040AFD040409FD0409FD0409C8B2
:1027F000040AFD050409EA040AFD06040916040A90
:10280000AD07040A7508040A5109040A390A040AC2
:10281000290B040A210C040A190D040A150E040AD6
:10282000110F04DA1004DA11049A12045A13049AEC
:1028300014045A15045A16045A170432185A190463
:10284000321A321B321C321D321E321F322132220A
:10285000322432263228322A322D32313235323A7F
:102860003241324B3258326F329E235602230307D5
:102870001A0C08238C011A4C041A24041A07043277
:10288000F232E232D832D032CC32C95AC8082910DA
:102890002918292029282930293829402948295050
:1028A0002958B3F006141C024022046A800C9A08CE
:1028B0000C5A100C4A0C24191B3918190B892419AD
:1028C00054390C11493C190F211C0402406711298D
:1028D00004112D10024020076930190D793C1909A7
:1028E000390C2C0802400829582918296839181968
:1028F000482950394829601945396001293A014071
:1029000032191315164C08F119C3516D1001400707
:10291000983AC26639E4290A6A0A7019792910328C
:102920000932259B5D1C4001FF01FF01FF01FF11E2
:102930003402401042086D0C0240400C211440F556
:102940001533080113111B1B0889041AA704321C34
:1029500013011A5B08D51C294012082B01031042F1
:10296000042C080240182910420214040240195590
:102970001A0115B388134A04602924A9602A1D107E
:102980005960695011AC0202091029A4B9600A11FA
:04299000806001134F
:04000005080001AD41
:00000001FF
